{
  "_format": "hh-sol-artifact-1",
  "contractName": "Greeting",
  "sourceName": "contracts/Greeting.sol",
  "abi": [
    {
      "anonymous": false,
      "inputs": [
        {
          "indexed": false,
          "internalType": "string",
          "name": "oldGreeting",
          "type": "string"
        },
        {
          "indexed": false,
          "internalType": "string",
          "name": "newGreeting",
          "type": "string"
        },
        {
          "indexed": false,
          "internalType": "address",
          "name": "updatedBy",
          "type": "address"
        }
      ],
      "name": "GreetingUpdated",
      "type": "event"
    },
    {
      "inputs": [],
      "name": "getGreeting",
      "outputs": [
        {
          "internalType": "string",
          "name": "",
          "type": "string"
        }
      ],
      "stateMutability": "view",
      "type": "function"
    },
    {
      "inputs": [],
      "name": "greeting",
      "outputs": [
        {
          "internalType": "string",
          "name": "",
          "type": "string"
        }
      ],
      "stateMutability": "view",
      "type": "function"
    },
    {
      "inputs": [
        {
          "internalType": "string",
          "name": "_greeting",
          "type": "string"
        }
      ],
      "name": "setGreeting",
      "outputs": [],
      "stateMutability": "nonpayable",
      "type": "function"
    }
  ],
  "bytecode": "0x60806040526040518060400160405280601081526020017f48656c6c6f20426c6f636b636861696e00000000000000000000000000000000815250600090816200004a9190620002d9565b503480156200005857600080fd5b50620003c0565b600081519050919050565b7f4e487b7100000000000000000000000000000000000000000000000000000000600052604160045260246000fd5b7f4e487b7100000000000000000000000000000000000000000000000000000000600052602260045260246000fd5b60006002820490506001821680620000e157607f821691505b602082108103620000f757620000f662000099565b5b50919050565b60008190508160005260206000209050919050565b60006020601f8301049050919050565b600082821b905092915050565b600060088302620001617fffffffffffffffffffffffffffffffffffffffffffffffffffffffffffffffff8262000122565b6200016d868362000122565b95508019841693508086168417925050509392505050565b6000819050919050565b6000819050919050565b6000620001ba620001b4620001ae8462000185565b6200018f565b62000185565b9050919050565b6000819050919050565b620001d68362000199565b620001ee620001e582620001c1565b8484546200012f565b825550505050565b600090565b62000205620001f6565b62000212818484620001cb565b505050565b5b818110156200023a576200022e600082620001fb565b60018101905062000218565b5050565b601f82111562000289576200025381620000fd565b6200025e8462000112565b810160208510156200026e578190505b620002866200027d8562000112565b83018262000217565b50505b505050565b600082821c905092915050565b6000620002ae600019846008026200028e565b1980831691505092915050565b6000620002c983836200029b565b9150826002028217905092915050565b620002e4826200005f565b67ffffffffffffffff8111156200030057620002ff6200006a565b5b6200030c8254620000c8565b620003198282856200023e565b600060209050601f8311600181146200035157600084156200033c578287015190505b620003488582620002bb565b865550620003b8565b601f1984166200036186620000fd565b60005b828110156200038b5784890151825560018201915060208501945060208101905062000364565b86831015620003ab5784890151620003a7601f8916826200029b565b8355505b6001600288020188555050505b505050505050565b61087980620003d06000396000f3fe608060405234801561001057600080fd5b50600436106100415760003560e01c8063a413686214610046578063ef690cc014610062578063fe50cc7214610080575b600080fd5b610060600480360381019061005b9190610367565b61009e565b005b61006a6100ed565b604051610077919061042f565b60405180910390f35b61008861017b565b604051610095919061042f565b60405180910390f35b7f3e7268c6edaa8889e34d294a0b92511f72d9b682b2ffbd5a527da6d0d1609439600082336040516100d29392919061058b565b60405180910390a180600090816100e99190610771565b5050565b600080546100fa90610480565b80601f016020809104026020016040519081016040528092919081815260200182805461012690610480565b80156101735780601f1061014857610100808354040283529160200191610173565b820191906000526020600020905b81548152906001019060200180831161015657829003601f168201915b505050505081565b60606000805461018a90610480565b80601f01602080910402602001604051908101604052809291908181526020018280546101b690610480565b80156102035780601f106101d857610100808354040283529160200191610203565b820191906000526020600020905b8154815290600101906020018083116101e657829003601f168201915b5050505050905090565b6000604051905090565b600080fd5b600080fd5b600080fd5b600080fd5b6000601f19601f8301169050919050565b7f4e487b7100000000000000000000000000000000000000000000000000000000600052604160045260246000fd5b6102748261022b565b810181811067ffffffffffffffff821117156102935761029261023c565b5b80604052505050565b60006102a661020d565b90506102b2828261026b565b919050565b600067ffffffffffffffff8211156102d2576102d161023c565b5b6102db8261022b565b9050602081019050919050565b82818337600083830152505050565b600061030a610305846102b7565b61029c565b90508281526020810184848401111561032657610325610226565b5b6103318482856102e8565b509392505050565b600082601f83011261034e5761034d610221565b5b813561035e8482602086016102f7565b91505092915050565b60006020828403121561037d5761037c610217565b5b600082013567ffffffffffffffff81111561039b5761039a61021c565b5b6103a784828501610339565b91505092915050565b600081519050919050565b600082825260208201905092915050565b60005b838110156103ea5780820151818401526020810190506103cf565b60008484015250505050565b6000610401826103b0565b61040b81856103bb565b935061041b8185602086016103cc565b6104248161022b565b840191505092915050565b6000602082019050818103600083015261044981846103f6565b905092915050565b7f4e487b7100000000000000000000000000000000000000000000000000000000600052602260045260246000fd5b6000600282049050600182168061049857607f821691505b6020821081036104ab576104aa610451565b5b50919050565b60008190508160005260206000209050919050565b600081546104d381610480565b6104dd81866103bb565b945060018216600081146104f8576001811461050e57610541565b60ff198316865281151560200286019350610541565b610517856104b1565b60005b838110156105395781548189015260018201915060208101905061051a565b808801955050505b50505092915050565b600073ffffffffffffffffffffffffffffffffffffffff82169050919050565b60006105758261054a565b9050919050565b6105858161056a565b82525050565b600060608201905081810360008301526105a581866104c6565b905081810360208301526105b981856103f6565b90506105c8604083018461057c565b949350505050565b60006020601f8301049050919050565b600082821b905092915050565b60006008830261061d7fffffffffffffffffffffffffffffffffffffffffffffffffffffffffffffffff826105e0565b61062786836105e0565b95508019841693508086168417925050509392505050565b6000819050919050565b6000819050919050565b600061066e6106696106648461063f565b610649565b61063f565b9050919050565b6000819050919050565b61068883610653565b61069c61069482610675565b8484546105ed565b825550505050565b600090565b6106b16106a4565b6106bc81848461067f565b505050565b5b818110156106e0576106d56000826106a9565b6001810190506106c2565b5050565b601f821115610725576106f6816104b1565b6106ff846105d0565b8101602085101561070e578190505b61072261071a856105d0565b8301826106c1565b50505b505050565b600082821c905092915050565b60006107486000198460080261072a565b1980831691505092915050565b60006107618383610737565b9150826002028217905092915050565b61077a826103b0565b67ffffffffffffffff8111156107935761079261023c565b5b61079d8254610480565b6107a88282856106e4565b600060209050601f8311600181146107db57600084156107c9578287015190505b6107d38582610755565b86555061083b565b601f1984166107e9866104b1565b60005b82811015610811578489015182556001820191506020850194506020810190506107ec565b8683101561082e578489015161082a601f891682610737565b8355505b6001600288020188555050505b50505050505056fea2646970667358221220c7c7d50c3e9cdd130d3324acf9064bc5e690d934e88a2b22f81d13cd941cfd9064736f6c63430008140033",
  "linkReferences": {},
  "deployedLinkReferences": {}
}